{
  "contracts/Helpers.sol": {
    "Helpers": {
      "abi": [
        {
          "inputs": [
            {
              "internalType": "address",
              "name": "value",
              "type": "address"
            },
            {
              "internalType": "address[]",
              "name": "array",
              "type": "address[]"
            }
          ],
          "name": "addressArrContainsValue",
          "outputs": [
            {
              "internalType": "bool",
              "name": "",
              "type": "bool"
            }
          ],
          "stateMutability": "pure",
          "type": "function"
        },
        {
          "inputs": [
            {
              "internalType": "string",
              "name": "a",
              "type": "string"
            },
            {
              "internalType": "string",
              "name": "b",
              "type": "string"
            }
          ],
          "name": "compareStrings",
          "outputs": [
            {
              "internalType": "bool",
              "name": "",
              "type": "bool"
            }
          ],
          "stateMutability": "pure",
          "type": "function"
        },
        {
          "inputs": [
            {
              "internalType": "uint256",
              "name": "value",
              "type": "uint256"
            },
            {
              "internalType": "uint256[]",
              "name": "array",
              "type": "uint256[]"
            }
          ],
          "name": "intArrContainsValue",
          "outputs": [
            {
              "internalType": "bool",
              "name": "",
              "type": "bool"
            }
          ],
          "stateMutability": "pure",
          "type": "function"
        }
      ],
      "evm": {
        "bytecode": {
          "linkReferences": {},
          "object": "608060405234801561001057600080fd5b506104e4806100206000396000f3fe608060405234801561001057600080fd5b50600436106100415760003560e01c806311f250381461004657806345244a861461006d578063bed34bba14610080575b600080fd5b610059610054366004610241565b610093565b604051901515815260200160405180910390f35b61005961007b366004610354565b610109565b61005961008e3660046102f3565b610161565b6000805b82518110156100fd578281815181106100c057634e487b7160e01b600052603260045260246000fd5b60200260200101516001600160a01b0316846001600160a01b031614156100eb576001915050610103565b806100f581610471565b915050610097565b50600090505b92915050565b6000805b82518110156100fd5782818151811061013657634e487b7160e01b600052603260045260246000fd5b602002602001015184141561014f576001915050610103565b8061015981610471565b91505061010d565b60008160405160200161017491906103e3565b604051602081830303815290604052805190602001208360405160200161019b91906103e3565b6040516020818303038152906040528051906020012014905092915050565b80356001600160a01b03811681146101d157600080fd5b919050565b600082601f8301126101e6578081fd5b813567ffffffffffffffff81111561020057610200610498565b610213601f8201601f191660200161041c565b818152846020838601011115610227578283fd5b816020850160208301379081016020019190915292915050565b60008060408385031215610253578182fd5b61025c836101ba565b915060208084013567ffffffffffffffff811115610278578283fd5b8401601f81018613610288578283fd5b803561029b6102968261044d565b61041c565b80828252848201915084840189868560051b87010111156102ba578687fd5b8694505b838510156102e3576102cf816101ba565b8352600194909401939185019185016102be565b5080955050505050509250929050565b60008060408385031215610305578182fd5b823567ffffffffffffffff8082111561031c578384fd5b610328868387016101d6565b9350602085013591508082111561033d578283fd5b5061034a858286016101d6565b9150509250929050565b60008060408385031215610366578182fd5b8235915060208084013567ffffffffffffffff811115610384578283fd5b8401601f81018613610394578283fd5b80356103a26102968261044d565b80828252848201915084840189868560051b87010111156103c1578687fd5b8694505b838510156102e35780358352600194909401939185019185016103c5565b60008251815b8181101561040357602081860181015185830152016103e9565b818111156104115782828501525b509190910192915050565b604051601f8201601f1916810167ffffffffffffffff8111828210171561044557610445610498565b604052919050565b600067ffffffffffffffff82111561046757610467610498565b5060051b60200190565b600060001982141561049157634e487b7160e01b81526011600452602481fd5b5060010190565b634e487b7160e01b600052604160045260246000fdfea2646970667358221220fe747731607a28b4a71048d601ac697fd1ab38083b5aed555398c7f556d335fb64736f6c63430008040033",
          "opcodes": "PUSH1 0x80 PUSH1 0x40 MSTORE CALLVALUE DUP1 ISZERO PUSH2 0x10 JUMPI PUSH1 0x0 DUP1 REVERT JUMPDEST POP PUSH2 0x4E4 DUP1 PUSH2 0x20 PUSH1 0x0 CODECOPY PUSH1 0x0 RETURN INVALID PUSH1 0x80 PUSH1 0x40 MSTORE CALLVALUE DUP1 ISZERO PUSH2 0x10 JUMPI PUSH1 0x0 DUP1 REVERT JUMPDEST POP PUSH1 0x4 CALLDATASIZE LT PUSH2 0x41 JUMPI PUSH1 0x0 CALLDATALOAD PUSH1 0xE0 SHR DUP1 PUSH4 0x11F25038 EQ PUSH2 0x46 JUMPI DUP1 PUSH4 0x45244A86 EQ PUSH2 0x6D JUMPI DUP1 PUSH4 0xBED34BBA EQ PUSH2 0x80 JUMPI JUMPDEST PUSH1 0x0 DUP1 REVERT JUMPDEST PUSH2 0x59 PUSH2 0x54 CALLDATASIZE PUSH1 0x4 PUSH2 0x241 JUMP JUMPDEST PUSH2 0x93 JUMP JUMPDEST PUSH1 0x40 MLOAD SWAP1 ISZERO ISZERO DUP2 MSTORE PUSH1 0x20 ADD PUSH1 0x40 MLOAD DUP1 SWAP2 SUB SWAP1 RETURN JUMPDEST PUSH2 0x59 PUSH2 0x7B CALLDATASIZE PUSH1 0x4 PUSH2 0x354 JUMP JUMPDEST PUSH2 0x109 JUMP JUMPDEST PUSH2 0x59 PUSH2 0x8E CALLDATASIZE PUSH1 0x4 PUSH2 0x2F3 JUMP JUMPDEST PUSH2 0x161 JUMP JUMPDEST PUSH1 0x0 DUP1 JUMPDEST DUP3 MLOAD DUP2 LT ISZERO PUSH2 0xFD JUMPI DUP3 DUP2 DUP2 MLOAD DUP2 LT PUSH2 0xC0 JUMPI PUSH4 0x4E487B71 PUSH1 0xE0 SHL PUSH1 0x0 MSTORE PUSH1 0x32 PUSH1 0x4 MSTORE PUSH1 0x24 PUSH1 0x0 REVERT JUMPDEST PUSH1 0x20 MUL PUSH1 0x20 ADD ADD MLOAD PUSH1 0x1 PUSH1 0x1 PUSH1 0xA0 SHL SUB AND DUP5 PUSH1 0x1 PUSH1 0x1 PUSH1 0xA0 SHL SUB AND EQ ISZERO PUSH2 0xEB JUMPI PUSH1 0x1 SWAP2 POP POP PUSH2 0x103 JUMP JUMPDEST DUP1 PUSH2 0xF5 DUP2 PUSH2 0x471 JUMP JUMPDEST SWAP2 POP POP PUSH2 0x97 JUMP JUMPDEST POP PUSH1 0x0 SWAP1 POP JUMPDEST SWAP3 SWAP2 POP POP JUMP JUMPDEST PUSH1 0x0 DUP1 JUMPDEST DUP3 MLOAD DUP2 LT ISZERO PUSH2 0xFD JUMPI DUP3 DUP2 DUP2 MLOAD DUP2 LT PUSH2 0x136 JUMPI PUSH4 0x4E487B71 PUSH1 0xE0 SHL PUSH1 0x0 MSTORE PUSH1 0x32 PUSH1 0x4 MSTORE PUSH1 0x24 PUSH1 0x0 REVERT JUMPDEST PUSH1 0x20 MUL PUSH1 0x20 ADD ADD MLOAD DUP5 EQ ISZERO PUSH2 0x14F JUMPI PUSH1 0x1 SWAP2 POP POP PUSH2 0x103 JUMP JUMPDEST DUP1 PUSH2 0x159 DUP2 PUSH2 0x471 JUMP JUMPDEST SWAP2 POP POP PUSH2 0x10D JUMP JUMPDEST PUSH1 0x0 DUP2 PUSH1 0x40 MLOAD PUSH1 0x20 ADD PUSH2 0x174 SWAP2 SWAP1 PUSH2 0x3E3 JUMP JUMPDEST PUSH1 0x40 MLOAD PUSH1 0x20 DUP2 DUP4 SUB SUB DUP2 MSTORE SWAP1 PUSH1 0x40 MSTORE DUP1 MLOAD SWAP1 PUSH1 0x20 ADD KECCAK256 DUP4 PUSH1 0x40 MLOAD PUSH1 0x20 ADD PUSH2 0x19B SWAP2 SWAP1 PUSH2 0x3E3 JUMP JUMPDEST PUSH1 0x40 MLOAD PUSH1 0x20 DUP2 DUP4 SUB SUB DUP2 MSTORE SWAP1 PUSH1 0x40 MSTORE DUP1 MLOAD SWAP1 PUSH1 0x20 ADD KECCAK256 EQ SWAP1 POP SWAP3 SWAP2 POP POP JUMP JUMPDEST DUP1 CALLDATALOAD PUSH1 0x1 PUSH1 0x1 PUSH1 0xA0 SHL SUB DUP2 AND DUP2 EQ PUSH2 0x1D1 JUMPI PUSH1 0x0 DUP1 REVERT JUMPDEST SWAP2 SWAP1 POP JUMP JUMPDEST PUSH1 0x0 DUP3 PUSH1 0x1F DUP4 ADD SLT PUSH2 0x1E6 JUMPI DUP1 DUP2 REVERT JUMPDEST DUP2 CALLDATALOAD PUSH8 0xFFFFFFFFFFFFFFFF DUP2 GT ISZERO PUSH2 0x200 JUMPI PUSH2 0x200 PUSH2 0x498 JUMP JUMPDEST PUSH2 0x213 PUSH1 0x1F DUP3 ADD PUSH1 0x1F NOT AND PUSH1 0x20 ADD PUSH2 0x41C JUMP JUMPDEST DUP2 DUP2 MSTORE DUP5 PUSH1 0x20 DUP4 DUP7 ADD ADD GT ISZERO PUSH2 0x227 JUMPI DUP3 DUP4 REVERT JUMPDEST DUP2 PUSH1 0x20 DUP6 ADD PUSH1 0x20 DUP4 ADD CALLDATACOPY SWAP1 DUP2 ADD PUSH1 0x20 ADD SWAP2 SWAP1 SWAP2 MSTORE SWAP3 SWAP2 POP POP JUMP JUMPDEST PUSH1 0x0 DUP1 PUSH1 0x40 DUP4 DUP6 SUB SLT ISZERO PUSH2 0x253 JUMPI DUP2 DUP3 REVERT JUMPDEST PUSH2 0x25C DUP4 PUSH2 0x1BA JUMP JUMPDEST SWAP2 POP PUSH1 0x20 DUP1 DUP5 ADD CALLDATALOAD PUSH8 0xFFFFFFFFFFFFFFFF DUP2 GT ISZERO PUSH2 0x278 JUMPI DUP3 DUP4 REVERT JUMPDEST DUP5 ADD PUSH1 0x1F DUP2 ADD DUP7 SGT PUSH2 0x288 JUMPI DUP3 DUP4 REVERT JUMPDEST DUP1 CALLDATALOAD PUSH2 0x29B PUSH2 0x296 DUP3 PUSH2 0x44D JUMP JUMPDEST PUSH2 0x41C JUMP JUMPDEST DUP1 DUP3 DUP3 MSTORE DUP5 DUP3 ADD SWAP2 POP DUP5 DUP5 ADD DUP10 DUP7 DUP6 PUSH1 0x5 SHL DUP8 ADD ADD GT ISZERO PUSH2 0x2BA JUMPI DUP7 DUP8 REVERT JUMPDEST DUP7 SWAP5 POP JUMPDEST DUP4 DUP6 LT ISZERO PUSH2 0x2E3 JUMPI PUSH2 0x2CF DUP2 PUSH2 0x1BA JUMP JUMPDEST DUP4 MSTORE PUSH1 0x1 SWAP5 SWAP1 SWAP5 ADD SWAP4 SWAP2 DUP6 ADD SWAP2 DUP6 ADD PUSH2 0x2BE JUMP JUMPDEST POP DUP1 SWAP6 POP POP POP POP POP POP SWAP3 POP SWAP3 SWAP1 POP JUMP JUMPDEST PUSH1 0x0 DUP1 PUSH1 0x40 DUP4 DUP6 SUB SLT ISZERO PUSH2 0x305 JUMPI DUP2 DUP3 REVERT JUMPDEST DUP3 CALLDATALOAD PUSH8 0xFFFFFFFFFFFFFFFF DUP1 DUP3 GT ISZERO PUSH2 0x31C JUMPI DUP4 DUP5 REVERT JUMPDEST PUSH2 0x328 DUP7 DUP4 DUP8 ADD PUSH2 0x1D6 JUMP JUMPDEST SWAP4 POP PUSH1 0x20 DUP6 ADD CALLDATALOAD SWAP2 POP DUP1 DUP3 GT ISZERO PUSH2 0x33D JUMPI DUP3 DUP4 REVERT JUMPDEST POP PUSH2 0x34A DUP6 DUP3 DUP7 ADD PUSH2 0x1D6 JUMP JUMPDEST SWAP2 POP POP SWAP3 POP SWAP3 SWAP1 POP JUMP JUMPDEST PUSH1 0x0 DUP1 PUSH1 0x40 DUP4 DUP6 SUB SLT ISZERO PUSH2 0x366 JUMPI DUP2 DUP3 REVERT JUMPDEST DUP3 CALLDATALOAD SWAP2 POP PUSH1 0x20 DUP1 DUP5 ADD CALLDATALOAD PUSH8 0xFFFFFFFFFFFFFFFF DUP2 GT ISZERO PUSH2 0x384 JUMPI DUP3 DUP4 REVERT JUMPDEST DUP5 ADD PUSH1 0x1F DUP2 ADD DUP7 SGT PUSH2 0x394 JUMPI DUP3 DUP4 REVERT JUMPDEST DUP1 CALLDATALOAD PUSH2 0x3A2 PUSH2 0x296 DUP3 PUSH2 0x44D JUMP JUMPDEST DUP1 DUP3 DUP3 MSTORE DUP5 DUP3 ADD SWAP2 POP DUP5 DUP5 ADD DUP10 DUP7 DUP6 PUSH1 0x5 SHL DUP8 ADD ADD GT ISZERO PUSH2 0x3C1 JUMPI DUP7 DUP8 REVERT JUMPDEST DUP7 SWAP5 POP JUMPDEST DUP4 DUP6 LT ISZERO PUSH2 0x2E3 JUMPI DUP1 CALLDATALOAD DUP4 MSTORE PUSH1 0x1 SWAP5 SWAP1 SWAP5 ADD SWAP4 SWAP2 DUP6 ADD SWAP2 DUP6 ADD PUSH2 0x3C5 JUMP JUMPDEST PUSH1 0x0 DUP3 MLOAD DUP2 JUMPDEST DUP2 DUP2 LT ISZERO PUSH2 0x403 JUMPI PUSH1 0x20 DUP2 DUP7 ADD DUP2 ADD MLOAD DUP6 DUP4 ADD MSTORE ADD PUSH2 0x3E9 JUMP JUMPDEST DUP2 DUP2 GT ISZERO PUSH2 0x411 JUMPI DUP3 DUP3 DUP6 ADD MSTORE JUMPDEST POP SWAP2 SWAP1 SWAP2 ADD SWAP3 SWAP2 POP POP JUMP JUMPDEST PUSH1 0x40 MLOAD PUSH1 0x1F DUP3 ADD PUSH1 0x1F NOT AND DUP2 ADD PUSH8 0xFFFFFFFFFFFFFFFF DUP2 GT DUP3 DUP3 LT OR ISZERO PUSH2 0x445 JUMPI PUSH2 0x445 PUSH2 0x498 JUMP JUMPDEST PUSH1 0x40 MSTORE SWAP2 SWAP1 POP JUMP JUMPDEST PUSH1 0x0 PUSH8 0xFFFFFFFFFFFFFFFF DUP3 GT ISZERO PUSH2 0x467 JUMPI PUSH2 0x467 PUSH2 0x498 JUMP JUMPDEST POP PUSH1 0x5 SHL PUSH1 0x20 ADD SWAP1 JUMP JUMPDEST PUSH1 0x0 PUSH1 0x0 NOT DUP3 EQ ISZERO PUSH2 0x491 JUMPI PUSH4 0x4E487B71 PUSH1 0xE0 SHL DUP2 MSTORE PUSH1 0x11 PUSH1 0x4 MSTORE PUSH1 0x24 DUP2 REVERT JUMPDEST POP PUSH1 0x1 ADD SWAP1 JUMP JUMPDEST PUSH4 0x4E487B71 PUSH1 0xE0 SHL PUSH1 0x0 MSTORE PUSH1 0x41 PUSH1 0x4 MSTORE PUSH1 0x24 PUSH1 0x0 REVERT INVALID LOG2 PUSH5 0x6970667358 0x22 SLT KECCAK256 INVALID PUSH21 0x7731607A28B4A71048D601AC697FD1AB38083B5AED SSTORE MSTORE8 SWAP9 0xC7 CREATE2 JUMP 0xD3 CALLDATALOAD 0xFB PUSH5 0x736F6C6343 STOP ADDMOD DIV STOP CALLER "
        },
        "methodIdentifiers": {
          "addressArrContainsValue(address,address[])": "11f25038",
          "compareStrings(string,string)": "bed34bba",
          "intArrContainsValue(uint256,uint256[])": "45244a86"
        }
      }
    }
  }
}