{
  "_format": "hh-sol-artifact-1",
  "contractName": "Library",
  "sourceName": "contracts/Library.sol",
  "abi": [
    {
      "anonymous": false,
      "inputs": [
        {
          "indexed": true,
          "internalType": "address",
          "name": "previousOwner",
          "type": "address"
        },
        {
          "indexed": true,
          "internalType": "address",
          "name": "newOwner",
          "type": "address"
        }
      ],
      "name": "OwnershipTransferred",
      "type": "event"
    },
    {
      "inputs": [
        {
          "internalType": "string",
          "name": "bookName",
          "type": "string"
        },
        {
          "internalType": "uint256",
          "name": "quantity",
          "type": "uint256"
        }
      ],
      "name": "AddBook",
      "outputs": [],
      "stateMutability": "nonpayable",
      "type": "function"
    },
    {
      "inputs": [
        {
          "internalType": "uint256",
          "name": "bookId",
          "type": "uint256"
        }
      ],
      "name": "BorrowBook",
      "outputs": [],
      "stateMutability": "nonpayable",
      "type": "function"
    },
    {
      "inputs": [
        {
          "internalType": "uint256",
          "name": "bookId",
          "type": "uint256"
        }
      ],
      "name": "BorrowHistory",
      "outputs": [
        {
          "internalType": "address[]",
          "name": "",
          "type": "address[]"
        }
      ],
      "stateMutability": "view",
      "type": "function"
    },
    {
      "inputs": [
        {
          "internalType": "uint256",
          "name": "",
          "type": "uint256"
        }
      ],
      "name": "LibraryArchive",
      "outputs": [
        {
          "internalType": "uint256",
          "name": "id",
          "type": "uint256"
        },
        {
          "internalType": "string",
          "name": "name",
          "type": "string"
        },
        {
          "internalType": "uint256",
          "name": "quantity",
          "type": "uint256"
        },
        {
          "internalType": "bool",
          "name": "exists",
          "type": "bool"
        }
      ],
      "stateMutability": "view",
      "type": "function"
    },
    {
      "inputs": [
        {
          "internalType": "uint256",
          "name": "bookId",
          "type": "uint256"
        }
      ],
      "name": "ReturnBook",
      "outputs": [],
      "stateMutability": "nonpayable",
      "type": "function"
    },
    {
      "inputs": [],
      "name": "owner",
      "outputs": [
        {
          "internalType": "address",
          "name": "",
          "type": "address"
        }
      ],
      "stateMutability": "view",
      "type": "function"
    },
    {
      "inputs": [],
      "name": "renounceOwnership",
      "outputs": [],
      "stateMutability": "nonpayable",
      "type": "function"
    },
    {
      "inputs": [
        {
          "internalType": "address",
          "name": "newOwner",
          "type": "address"
        }
      ],
      "name": "transferOwnership",
      "outputs": [],
      "stateMutability": "nonpayable",
      "type": "function"
    }
  ],
  "bytecode": "0x6080604052604051610010906100b8565b604051809103906000f08015801561002c573d6000803e3d6000fd5b50600180546001600160a01b0319166001600160a01b039290921691909117905534801561005957600080fd5b5061006333610068565b6100c5565b600080546001600160a01b038381166001600160a01b0319831681178455604051919092169283917f8be0079c531659141344cd1fd0a4f28419497f9722a3daafe3b4186f6b6457e09190a35050565b6105048061125b83390190565b611187806100d46000396000f3fe608060405234801561001057600080fd5b50600436106100885760003560e01c80639649faa31161005b5780639649faa3146100f1578063b8dd17db14610104578063e7e58ee914610117578063f2fde38b1461013757600080fd5b8063265be2e21461008d57806327e4671c146100a2578063715018a6146100ce5780638da5cb5b146100d6575b600080fd5b6100a061009b366004610d74565b61014a565b005b6100b56100b0366004610de7565b6103c4565b6040516100c5949392919061104a565b60405180910390f35b6100a061048c565b6000546040516001600160a01b0390911681526020016100c5565b6100a06100ff366004610de7565b6104c2565b6100a0610112366004610de7565b610791565b61012a610125366004610de7565b61091b565b6040516100c59190610e84565b6100a0610145366004610d26565b6109bd565b6000546001600160a01b0316331461017d5760405162461bcd60e51b815260040161017490610f8e565b60405180910390fd5b6101878383610a58565b806101a6575060025460009081526004602052604090206003015460ff165b156101f35760405162461bcd60e51b815260206004820181905260248201527f5468697320626f6f6b2065786973747320696e20746865206c696272617279216044820152606401610174565b60018110156102445760405162461bcd60e51b815260206004820152601f60248201527f5175616e746974792063616e6e6f74206265206c657373207468616e203121006044820152606401610174565b61027160405180608001604052806000815260200160608152602001600081526020016000151581525090565b6002548152604080516020601f860181900481028201810190925284815290859085908190840183828082843760009201829052506020808701958652604080880189905260016060890181905260025484526004835292208751815595518051889796506102e7955092860193500190610c8d565b50604082015160028201556060909101516003918201805460ff1916911515919091179055805460018101825560009190915281517fc2575a0e9e593c00f959f8c92f12db2869c3395a3b0502d05e2516446f71f85b600490920291820190815560208084015180518594610382937fc2575a0e9e593c00f959f8c92f12db2869c3395a3b0502d05e2516446f71f85c909101920190610c8d565b5060408201516002828101919091556060909201516003909101805460ff191691151591909117905580549060006103b983611120565b919050555050505050565b600381815481106103d457600080fd5b600091825260209091206004909102018054600182018054919350906103f9906110eb565b80601f0160208091040260200160405190810160405280929190818152602001828054610425906110eb565b80156104725780601f1061044757610100808354040283529160200191610472565b820191906000526020600020905b81548152906001019060200180831161045557829003601f168201915b50505050600283015460039093015491929160ff16905084565b6000546001600160a01b031633146104b65760405162461bcd60e51b815260040161017490610f8e565b6104c06000610b4c565b565b600081815260046020526040902060030154819060ff166104f55760405162461bcd60e51b815260040161017490610fc3565b60008281526004602052604090206002015461055f5760405162461bcd60e51b8152602060048201526024808201527f5468697320626f6f6b206973206f7574206f662073746f636b2063757272656e604482015263746c792160e01b6064820152608401610174565b60015433600090815260066020526040908190209051632292254360e11b81526001600160a01b03909216916345244a86916105a091869190600401610ffa565b60206040518083038186803b1580156105b857600080fd5b505afa1580156105cc573d6000803e3d6000fd5b505050506040513d601f19601f820116820180604052508101906105f09190610d54565b156106485760405162461bcd60e51b815260206004820152602260248201527f596f7527766520616c726561647920626f72726f776564207468617420626f6f6044820152616b2160f01b6064820152608401610174565b3360008181526006602090815260408083208054600180820183559185528385200187905554868452600590925291829020915163023e4a0760e31b81526001600160a01b03909116926311f25038926106a492600401610e28565b60206040518083038186803b1580156106bc57600080fd5b505afa1580156106d0573d6000803e3d6000fd5b505050506040513d601f19601f820116820180604052508101906106f49190610d54565b6107275760008281526005602090815260408220805460018101825590835291200180546001600160a01b031916331790555b6000828152600460205260408120600201805491610744836110d4565b91905055506003828154811061076a57634e487b7160e01b600052603260045260246000fd5b600091825260208220600260049092020101805491610788836110d4565b91905055505050565b600081815260046020526040902060030154819060ff166107c45760405162461bcd60e51b815260040161017490610fc3565b60015433600090815260066020526040908190209051632292254360e11b81526001600160a01b03909216916345244a869161080591869190600401610ffa565b60206040518083038186803b15801561081d57600080fd5b505afa158015610831573d6000803e3d6000fd5b505050506040513d601f19601f820116820180604052508101906108559190610d54565b6108a15760405162461bcd60e51b815260206004820152601e60248201527f596f7520686176656e7420626f72726f776564207468617420626f6f6b2100006044820152606401610174565b3360009081526006602052604090206108ba9083610b9c565b60008281526004602052604081206002018054916108d783611120565b9190505550600382815481106108fd57634e487b7160e01b600052603260045260246000fd5b60009182526020822060026004909202010180549161078883611120565b600081815260046020526040902060030154606090829060ff166109515760405162461bcd60e51b815260040161017490610fc3565b600083815260056020908152604091829020805483518184028101840190945280845290918301828280156109af57602002820191906000526020600020905b81546001600160a01b03168152600190910190602001808311610991575b505050505091505b50919050565b6000546001600160a01b031633146109e75760405162461bcd60e51b815260040161017490610f8e565b6001600160a01b038116610a4c5760405162461bcd60e51b815260206004820152602660248201527f4f776e61626c653a206e6577206f776e657220697320746865207a65726f206160448201526564647265737360d01b6064820152608401610174565b610a5581610b4c565b50565b6000805b600354811015610b4057600154600380546001600160a01b039092169163bed34bba919084908110610a9e57634e487b7160e01b600052603260045260246000fd5b906000526020600020906004020160010186866040518463ffffffff1660e01b8152600401610acf93929190610ed1565b60206040518083038186803b158015610ae757600080fd5b505afa158015610afb573d6000803e3d6000fd5b505050506040513d601f19601f82011682018060405250810190610b1f9190610d54565b15610b2e576001915050610b46565b80610b3881611120565b915050610a5c565b50600090505b92915050565b600080546001600160a01b038381166001600160a01b0319831681178455604051919092169283917f8be0079c531659141344cd1fd0a4f28419497f9722a3daafe3b4186f6b6457e09190a35050565b60005b8254811015610c8857828181548110610bc857634e487b7160e01b600052603260045260246000fd5b9060005260206000200154821415610c765782548390610bea906001906110bd565b81548110610c0857634e487b7160e01b600052603260045260246000fd5b9060005260206000200154838281548110610c3357634e487b7160e01b600052603260045260246000fd5b906000526020600020018190555082805480610c5f57634e487b7160e01b600052603160045260246000fd5b600190038181906000526020600020016000905590555b80610c8081611120565b915050610b9f565b505050565b828054610c99906110eb565b90600052602060002090601f016020900481019282610cbb5760008555610d01565b82601f10610cd457805160ff1916838001178555610d01565b82800160010185558215610d01579182015b82811115610d01578251825591602001919060010190610ce6565b50610d0d929150610d11565b5090565b5b80821115610d0d5760008155600101610d12565b600060208284031215610d37578081fd5b81356001600160a01b0381168114610d4d578182fd5b9392505050565b600060208284031215610d65578081fd5b81518015158114610d4d578182fd5b600080600060408486031215610d88578182fd5b833567ffffffffffffffff80821115610d9f578384fd5b818601915086601f830112610db2578384fd5b813581811115610dc0578485fd5b876020828501011115610dd1578485fd5b6020928301989097509590910135949350505050565b600060208284031215610df8578081fd5b5035919050565b81835281816020850137506000828201602090810191909152601f909101601f19169091010190565b60006040820160018060a01b03808616845260206040818601528286548085526060870191508786528286209450855b81811015610e76578554851683526001958601959284019201610e58565b509098975050505050505050565b6020808252825182820181905260009190848201906040850190845b81811015610ec55783516001600160a01b031683529284019291840191600101610ea0565b50909695505050505050565b60408152600080855482600182811c915080831680610ef157607f831692505b6020808410821415610f1157634e487b7160e01b87526022600452602487fd5b6040880184905260608801828015610f305760018114610f4157610f6b565b60ff19871682528282019750610f6b565b60008d815260209020895b87811015610f6557815484820152908601908401610f4c565b83019850505b5050878603818901525050505050610f84818587610dff565b9695505050505050565b6020808252818101527f4f776e61626c653a2063616c6c6572206973206e6f7420746865206f776e6572604082015260600190565b6020808252601f908201527f426f6f6b20646f6573206e6f7420657869737420696e206c6962726172792100604082015260600190565b60006040820184835260206040818501528185548084526060860191508685528285209350845b8181101561103d57845483526001948501949284019201611021565b5090979650505050505050565b848152600060206080818401528551806080850152825b8181101561107d5787810183015185820160a001528201611061565b8181111561108e578360a083870101525b5060408401869052601f01601f1916830160a00191506110b49050606083018415159052565b95945050505050565b6000828210156110cf576110cf61113b565b500390565b6000816110e3576110e361113b565b506000190190565b600181811c908216806110ff57607f821691505b602082108114156109b757634e487b7160e01b600052602260045260246000fd5b60006000198214156111345761113461113b565b5060010190565b634e487b7160e01b600052601160045260246000fdfea2646970667358221220796bed454a3fd2901cf74e51c7adb049b457e6a9db2d4088dea5fd48d597ddc064736f6c63430008040033608060405234801561001057600080fd5b506104e4806100206000396000f3fe608060405234801561001057600080fd5b50600436106100415760003560e01c806311f250381461004657806345244a861461006d578063bed34bba14610080575b600080fd5b610059610054366004610241565b610093565b604051901515815260200160405180910390f35b61005961007b366004610354565b610109565b61005961008e3660046102f3565b610161565b6000805b82518110156100fd578281815181106100c057634e487b7160e01b600052603260045260246000fd5b60200260200101516001600160a01b0316846001600160a01b031614156100eb576001915050610103565b806100f581610471565b915050610097565b50600090505b92915050565b6000805b82518110156100fd5782818151811061013657634e487b7160e01b600052603260045260246000fd5b602002602001015184141561014f576001915050610103565b8061015981610471565b91505061010d565b60008160405160200161017491906103e3565b604051602081830303815290604052805190602001208360405160200161019b91906103e3565b6040516020818303038152906040528051906020012014905092915050565b80356001600160a01b03811681146101d157600080fd5b919050565b600082601f8301126101e6578081fd5b813567ffffffffffffffff81111561020057610200610498565b610213601f8201601f191660200161041c565b818152846020838601011115610227578283fd5b816020850160208301379081016020019190915292915050565b60008060408385031215610253578182fd5b61025c836101ba565b915060208084013567ffffffffffffffff811115610278578283fd5b8401601f81018613610288578283fd5b803561029b6102968261044d565b61041c565b80828252848201915084840189868560051b87010111156102ba578687fd5b8694505b838510156102e3576102cf816101ba565b8352600194909401939185019185016102be565b5080955050505050509250929050565b60008060408385031215610305578182fd5b823567ffffffffffffffff8082111561031c578384fd5b610328868387016101d6565b9350602085013591508082111561033d578283fd5b5061034a858286016101d6565b9150509250929050565b60008060408385031215610366578182fd5b8235915060208084013567ffffffffffffffff811115610384578283fd5b8401601f81018613610394578283fd5b80356103a26102968261044d565b80828252848201915084840189868560051b87010111156103c1578687fd5b8694505b838510156102e35780358352600194909401939185019185016103c5565b60008251815b8181101561040357602081860181015185830152016103e9565b818111156104115782828501525b509190910192915050565b604051601f8201601f1916810167ffffffffffffffff8111828210171561044557610445610498565b604052919050565b600067ffffffffffffffff82111561046757610467610498565b5060051b60200190565b600060001982141561049157634e487b7160e01b81526011600452602481fd5b5060010190565b634e487b7160e01b600052604160045260246000fdfea2646970667358221220fe747731607a28b4a71048d601ac697fd1ab38083b5aed555398c7f556d335fb64736f6c63430008040033",
  "linkReferences": {},
  "deployedLinkReferences": {}
}