{
  "_format": "hh-sol-artifact-1",
  "contractName": "Library",
  "sourceName": "contracts/Library.sol",
  "abi": [
    {
      "anonymous": false,
      "inputs": [
        {
          "indexed": false,
          "internalType": "uint256",
          "name": "bookid",
          "type": "uint256"
        },
        {
          "indexed": false,
          "internalType": "string",
          "name": "bookName",
          "type": "string"
        },
        {
          "indexed": false,
          "internalType": "uint256",
          "name": "quantity",
          "type": "uint256"
        }
      ],
      "name": "LogAddBook",
      "type": "event"
    },
    {
      "anonymous": false,
      "inputs": [
        {
          "indexed": false,
          "internalType": "uint256",
          "name": "bookid",
          "type": "uint256"
        },
        {
          "indexed": false,
          "internalType": "address",
          "name": "clientAddress",
          "type": "address"
        }
      ],
      "name": "LogBorrowBook",
      "type": "event"
    },
    {
      "anonymous": false,
      "inputs": [
        {
          "indexed": false,
          "internalType": "address",
          "name": "sender",
          "type": "address"
        },
        {
          "indexed": false,
          "internalType": "uint256",
          "name": "amount",
          "type": "uint256"
        }
      ],
      "name": "LogETHUnwrapped",
      "type": "event"
    },
    {
      "anonymous": false,
      "inputs": [
        {
          "indexed": false,
          "internalType": "address",
          "name": "sender",
          "type": "address"
        },
        {
          "indexed": false,
          "internalType": "uint256",
          "name": "amount",
          "type": "uint256"
        }
      ],
      "name": "LogETHWrapped",
      "type": "event"
    },
    {
      "anonymous": false,
      "inputs": [
        {
          "indexed": false,
          "internalType": "uint256",
          "name": "bookid",
          "type": "uint256"
        },
        {
          "indexed": false,
          "internalType": "address",
          "name": "clientAddress",
          "type": "address"
        }
      ],
      "name": "LogReturnBook",
      "type": "event"
    },
    {
      "anonymous": false,
      "inputs": [
        {
          "indexed": true,
          "internalType": "address",
          "name": "previousOwner",
          "type": "address"
        },
        {
          "indexed": true,
          "internalType": "address",
          "name": "newOwner",
          "type": "address"
        }
      ],
      "name": "OwnershipTransferred",
      "type": "event"
    },
    {
      "stateMutability": "payable",
      "type": "fallback"
    },
    {
      "inputs": [
        {
          "internalType": "string",
          "name": "bookName",
          "type": "string"
        },
        {
          "internalType": "uint256",
          "name": "quantity",
          "type": "uint256"
        }
      ],
      "name": "AddBook",
      "outputs": [],
      "stateMutability": "nonpayable",
      "type": "function"
    },
    {
      "inputs": [
        {
          "internalType": "uint256",
          "name": "bookId",
          "type": "uint256"
        }
      ],
      "name": "BorrowBook",
      "outputs": [],
      "stateMutability": "payable",
      "type": "function"
    },
    {
      "inputs": [
        {
          "internalType": "uint256",
          "name": "bookId",
          "type": "uint256"
        }
      ],
      "name": "BorrowHistory",
      "outputs": [
        {
          "internalType": "address[]",
          "name": "",
          "type": "address[]"
        }
      ],
      "stateMutability": "view",
      "type": "function"
    },
    {
      "inputs": [],
      "name": "GetLibraryArchive",
      "outputs": [
        {
          "components": [
            {
              "internalType": "uint256",
              "name": "id",
              "type": "uint256"
            },
            {
              "internalType": "string",
              "name": "name",
              "type": "string"
            },
            {
              "internalType": "uint256",
              "name": "quantity",
              "type": "uint256"
            },
            {
              "internalType": "bool",
              "name": "exists",
              "type": "bool"
            }
          ],
          "internalType": "struct Library.Book[]",
          "name": "",
          "type": "tuple[]"
        }
      ],
      "stateMutability": "view",
      "type": "function"
    },
    {
      "inputs": [],
      "name": "LIBToken",
      "outputs": [
        {
          "internalType": "contract LibraryToken",
          "name": "",
          "type": "address"
        }
      ],
      "stateMutability": "view",
      "type": "function"
    },
    {
      "inputs": [
        {
          "internalType": "uint256",
          "name": "",
          "type": "uint256"
        }
      ],
      "name": "LibraryArchive",
      "outputs": [
        {
          "internalType": "uint256",
          "name": "id",
          "type": "uint256"
        },
        {
          "internalType": "string",
          "name": "name",
          "type": "string"
        },
        {
          "internalType": "uint256",
          "name": "quantity",
          "type": "uint256"
        },
        {
          "internalType": "bool",
          "name": "exists",
          "type": "bool"
        }
      ],
      "stateMutability": "view",
      "type": "function"
    },
    {
      "inputs": [
        {
          "internalType": "uint256",
          "name": "bookId",
          "type": "uint256"
        },
        {
          "internalType": "uint256",
          "name": "value",
          "type": "uint256"
        }
      ],
      "name": "ReturnBook",
      "outputs": [],
      "stateMutability": "nonpayable",
      "type": "function"
    },
    {
      "inputs": [],
      "name": "owner",
      "outputs": [
        {
          "internalType": "address",
          "name": "",
          "type": "address"
        }
      ],
      "stateMutability": "view",
      "type": "function"
    },
    {
      "inputs": [],
      "name": "renounceOwnership",
      "outputs": [],
      "stateMutability": "nonpayable",
      "type": "function"
    },
    {
      "inputs": [
        {
          "internalType": "address",
          "name": "newOwner",
          "type": "address"
        }
      ],
      "name": "transferOwnership",
      "outputs": [],
      "stateMutability": "nonpayable",
      "type": "function"
    },
    {
      "inputs": [
        {
          "internalType": "uint256",
          "name": "value",
          "type": "uint256"
        }
      ],
      "name": "unwrap",
      "outputs": [],
      "stateMutability": "nonpayable",
      "type": "function"
    },
    {
      "inputs": [],
      "name": "wrap",
      "outputs": [],
      "stateMutability": "payable",
      "type": "function"
    },
    {
      "stateMutability": "payable",
      "type": "receive"
    }
  ],
  "bytecode": "0x60806040526040516200001290620000f1565b604051809103906000f0801580156200002f573d6000803e3d6000fd5b50600280546001600160a01b0319166001600160a01b03929092169190911790553480156200005d57600080fd5b50600080546001600160a01b031916339081178255604051909182917f8be0079c531659141344cd1fd0a4f28419497f9722a3daafe3b4186f6b6457e0908290a350604051620000ad90620000ff565b604051809103906000f080158015620000ca573d6000803e3d6000fd5b50600180546001600160a01b0319166001600160a01b03929092169190911790556200010d565b610504806200198483390190565b611b448062001e8883390190565b611867806200011d6000396000f3fe6080604052600436106100ab5760003560e01c80639649faa3116100645780639649faa3146101a4578063ac1b5d71146101b7578063d46eb119146100ba578063de0e9a3e146101d7578063e7e58ee9146101f7578063f2fde38b14610224576100ba565b80631ba3192b146100c2578063265be2e2146100ff57806327e4671c1461011f578063715018a61461014f578063801bd18c146101645780638da5cb5b14610186576100ba565b366100ba576100b8610244565b005b6100b8610244565b3480156100ce57600080fd5b506001546100e2906001600160a01b031681565b6040516001600160a01b0390911681526020015b60405180910390f35b34801561010b57600080fd5b506100b861011a366004611383565b610337565b34801561012b57600080fd5b5061013f61013a3660046113f6565b6105ea565b6040516100f6949392919061176c565b34801561015b57600080fd5b506100b86106b2565b34801561017057600080fd5b50610179610726565b6040516100f6919061154c565b34801561019257600080fd5b506000546001600160a01b03166100e2565b6100b86101b23660046113f6565b610840565b3480156101c357600080fd5b506100b86101d236600461140e565b610bb3565b3480156101e357600080fd5b506100b86101f23660046113f6565b610d88565b34801561020357600080fd5b506102176102123660046113f6565b610f2b565b6040516100f691906114ff565b34801561023057600080fd5b506100b861023f366004611335565b610fcd565b600034116102995760405162461bcd60e51b815260206004820152601e60248201527f5765206e65656420746f2077726170206174206c65617374203120776569000060448201526064015b60405180910390fd5b6001546040516340c10f1960e01b81523360048201523460248201526001600160a01b03909116906340c10f1990604401600060405180830381600087803b1580156102e457600080fd5b505af11580156102f8573d6000803e3d6000fd5b5050604080513381523460208201527ff5bbfc7c33e2415d8412b58a8857448e349e08f7525154290968f731e86a9039935001905060405180910390a1565b6000546001600160a01b031633146103615760405162461bcd60e51b815260040161029090611687565b61036b83836110b7565b806103895750600380546000908152600560205260409020015460ff165b156103d65760405162461bcd60e51b815260206004820181905260248201527f5468697320626f6f6b2065786973747320696e20746865206c696272617279216044820152606401610290565b60018110156104275760405162461bcd60e51b815260206004820152601f60248201527f5175616e746974792063616e6e6f74206265206c657373207468616e203121006044820152606401610290565b61045460405180608001604052806000815260200160608152602001600081526020016000151581525090565b6003548152604080516020601f860181900481028201810190925284815290859085908190840183828082843760009201829052506020808701958652604080880189905260016060890181905260035484526005835292208751815595518051889796506104ca95509286019350019061129c565b50604082015160028201556060909101516003909101805491151560ff19909216919091179055600480546001810182556000829052825191027f8a35acfbc15ff81a39ae7d344fd709f28e8600b4aa8c65c6b64bfe7fe36bd19b81019182556020808401518051859493610565937f8a35acfbc15ff81a39ae7d344fd709f28e8600b4aa8c65c6b64bfe7fe36bd19c90910192019061129c565b50604082015160028201556060909101516003918201805460ff1916911515919091179055805490600061059883611800565b91905055507fc50cfefc2da0ecf21f7110f8121cfc9162e7e2904fd550aa538b0559ddc9182f8160000151826020015183604001516040516105dc93929190611743565b60405180910390a150505050565b600481815481106105fa57600080fd5b6000918252602090912060049091020180546001820180549193509061061f906117cb565b80601f016020809104026020016040519081016040528092919081815260200182805461064b906117cb565b80156106985780601f1061066d57610100808354040283529160200191610698565b820191906000526020600020905b81548152906001019060200180831161067b57829003601f168201915b50505050600283015460039093015491929160ff16905084565b6000546001600160a01b031633146106dc5760405162461bcd60e51b815260040161029090611687565b600080546040516001600160a01b03909116907f8be0079c531659141344cd1fd0a4f28419497f9722a3daafe3b4186f6b6457e0908390a3600080546001600160a01b0319169055565b60606004805480602002602001604051908101604052809291908181526020016000905b82821015610837578382906000526020600020906004020160405180608001604052908160008201548152602001600182018054610787906117cb565b80601f01602080910402602001604051908101604052809291908181526020018280546107b3906117cb565b80156108005780601f106107d557610100808354040283529160200191610800565b820191906000526020600020905b8154815290600101906020018083116107e357829003601f168201915b5050509183525050600282015460208083019190915260039092015460ff161515604090910152908252600192909201910161074a565b50505050905090565b600081815260056020526040902060030154819060ff166108735760405162461bcd60e51b8152600401610290906116bc565b6000828152600560205260409020600201546108dd5760405162461bcd60e51b8152602060048201526024808201527f5468697320626f6f6b206973206f7574206f662073746f636b2063757272656e604482015263746c792160e01b6064820152608401610290565b60025433600090815260076020526040908190209051632292254360e11b81526001600160a01b03909216916345244a869161091e918691906004016116f3565b60206040518083038186803b15801561093657600080fd5b505afa15801561094a573d6000803e3d6000fd5b505050506040513d601f19601f8201168201806040525081019061096e9190611363565b156109c65760405162461bcd60e51b815260206004820152602260248201527f596f7527766520616c726561647920626f72726f776564207468617420626f6f6044820152616b2160f01b6064820152608401610290565b67016345785d8a0000341015610a295760405162461bcd60e51b815260206004820152602260248201527f4e6f7420656e6f756768206d6f6e65792120507269636520697320302e3120456044820152610a8960f31b6064820152608401610290565b610a31610244565b336000818152600760209081526040808320805460018101825590845282842001869055600254868452600690925291829020915163023e4a0760e31b81526001600160a01b03909116926311f2503892610a8e926004016114a3565b60206040518083038186803b158015610aa657600080fd5b505afa158015610aba573d6000803e3d6000fd5b505050506040513d601f19601f82011682018060405250810190610ade9190611363565b610b115760008281526006602090815260408220805460018101825590835291200180546001600160a01b031916331790555b6000828152600560205260408120600201805491610b2e836117b4565b919050555060048281548110610b5457634e487b7160e01b600052603260045260246000fd5b600091825260208220600260049092020101805491610b72836117b4565b9091555050604080518381523360208201527f10c8d8ed17ec0606f4c5d6776b10503e2da96df16232012e6f4473d62a408ef5910160405180910390a15050565b600082815260056020526040902060030154829060ff16610be65760405162461bcd60e51b8152600401610290906116bc565b60025433600090815260076020526040908190209051632292254360e11b81526001600160a01b03909216916345244a8691610c27918791906004016116f3565b60206040518083038186803b158015610c3f57600080fd5b505afa158015610c53573d6000803e3d6000fd5b505050506040513d601f19601f82011682018060405250810190610c779190611363565b610cc35760405162461bcd60e51b815260206004820152601e60248201527f596f7520686176656e7420626f72726f776564207468617420626f6f6b2100006044820152606401610290565b610ccc82610d88565b336000908152600760205260409020610ce590846111ab565b6000838152600560205260408120600201805491610d0283611800565b919050555060048381548110610d2857634e487b7160e01b600052603260045260246000fd5b600091825260208220600260049092020101805491610d4683611800565b9091555050604080518481523360208201527f7cf5d6f14a98f5dc405c8a4eb37ff53bf35086e33917491278b381dd454c85cf910160405180910390a1505050565b60008111610dd85760405162461bcd60e51b815260206004820181905260248201527f5765206e65656420746f20756e77726170206174206c656173742031207765696044820152606401610290565b6001546040516323b872dd60e01b8152336004820152306024820152604481018390526001600160a01b03909116906323b872dd90606401602060405180830381600087803b158015610e2a57600080fd5b505af1158015610e3e573d6000803e3d6000fd5b505050506040513d601f19601f82011682018060405250810190610e629190611363565b50600154604051630852cd8d60e31b8152600481018390526001600160a01b03909116906342966c6890602401600060405180830381600087803b158015610ea957600080fd5b505af1158015610ebd573d6000803e3d6000fd5b505060405133925083156108fc02915083906000818181858888f19350505050158015610eee573d6000803e3d6000fd5b5060408051338152602081018390527fcddf2ba03463888346c0f626e3eb138f5990b099f6148e05f58835082b5c1d7f910160405180910390a150565b600081815260056020526040902060030154606090829060ff16610f615760405162461bcd60e51b8152600401610290906116bc565b60008381526006602090815260409182902080548351818402810184019094528084529091830182828015610fbf57602002820191906000526020600020905b81546001600160a01b03168152600190910190602001808311610fa1575b505050505091505b50919050565b6000546001600160a01b03163314610ff75760405162461bcd60e51b815260040161029090611687565b6001600160a01b03811661105c5760405162461bcd60e51b815260206004820152602660248201527f4f776e61626c653a206e6577206f776e657220697320746865207a65726f206160448201526564647265737360d01b6064820152608401610290565b600080546040516001600160a01b03808516939216917f8be0079c531659141344cd1fd0a4f28419497f9722a3daafe3b4186f6b6457e091a3600080546001600160a01b0319166001600160a01b0392909216919091179055565b6000805b60045481101561119f57600254600480546001600160a01b039092169163bed34bba9190849081106110fd57634e487b7160e01b600052603260045260246000fd5b906000526020600020906004020160010186866040518463ffffffff1660e01b815260040161112e939291906115ca565b60206040518083038186803b15801561114657600080fd5b505afa15801561115a573d6000803e3d6000fd5b505050506040513d601f19601f8201168201806040525081019061117e9190611363565b1561118d5760019150506111a5565b8061119781611800565b9150506110bb565b50600090505b92915050565b60005b8254811015611297578281815481106111d757634e487b7160e01b600052603260045260246000fd5b906000526020600020015482141561128557825483906111f99060019061179d565b8154811061121757634e487b7160e01b600052603260045260246000fd5b906000526020600020015483828154811061124257634e487b7160e01b600052603260045260246000fd5b90600052602060002001819055508280548061126e57634e487b7160e01b600052603160045260246000fd5b600190038181906000526020600020016000905590555b8061128f81611800565b9150506111ae565b505050565b8280546112a8906117cb565b90600052602060002090601f0160209004810192826112ca5760008555611310565b82601f106112e357805160ff1916838001178555611310565b82800160010185558215611310579182015b828111156113105782518255916020019190600101906112f5565b5061131c929150611320565b5090565b5b8082111561131c5760008155600101611321565b600060208284031215611346578081fd5b81356001600160a01b038116811461135c578182fd5b9392505050565b600060208284031215611374578081fd5b8151801515811461135c578182fd5b600080600060408486031215611397578182fd5b833567ffffffffffffffff808211156113ae578384fd5b818601915086601f8301126113c1578384fd5b8135818111156113cf578485fd5b8760208285010111156113e0578485fd5b6020928301989097509590910135949350505050565b600060208284031215611407578081fd5b5035919050565b60008060408385031215611420578182fd5b50508035926020909101359150565b81835281816020850137506000828201602090810191909152601f909101601f19169091010190565b60008151808452815b8181101561147d57602081850181015186830182015201611461565b8181111561148e5782602083870101525b50601f01601f19169290920160200192915050565b60006040820160018060a01b03808616845260206040818601528286548085526060870191508786528286209450855b818110156114f15785548516835260019586019592840192016114d3565b509098975050505050505050565b6020808252825182820181905260009190848201906040850190845b818110156115405783516001600160a01b03168352928401929184019160010161151b565b50909695505050505050565b60006020808301818452808551808352604092508286019150828160051b870101848801865b838110156114f157603f19898403018552815160808151855288820151818a8701526115a082870182611458565b838a0151878b01526060938401511515939096019290925250509386019390860190600101611572565b60408152600080855482600182811c9150808316806115ea57607f831692505b602080841082141561160a57634e487b7160e01b87526022600452602487fd5b6040880184905260608801828015611629576001811461163a57611664565b60ff19871682528282019750611664565b60008d815260209020895b8781101561165e57815484820152908601908401611645565b83019850505b505087860381890152505050505061167d81858761142f565b9695505050505050565b6020808252818101527f4f776e61626c653a2063616c6c6572206973206e6f7420746865206f776e6572604082015260600190565b6020808252601f908201527f426f6f6b20646f6573206e6f7420657869737420696e206c6962726172792100604082015260600190565b60006040820184835260206040818501528185548084526060860191508685528285209350845b818110156117365784548352600194850194928401920161171a565b5090979650505050505050565b83815260606020820152600061175c6060830185611458565b9050826040830152949350505050565b8481526080602082015260006117856080830186611458565b60408301949094525090151560609091015292915050565b6000828210156117af576117af61181b565b500390565b6000816117c3576117c361181b565b506000190190565b600181811c908216806117df57607f821691505b60208210811415610fc757634e487b7160e01b600052602260045260246000fd5b60006000198214156118145761181461181b565b5060010190565b634e487b7160e01b600052601160045260246000fdfea26469706673582212201272e9f183568668a0f085f39493e3ebe578914e822d6d447bbbab10f43565bf64736f6c63430008040033608060405234801561001057600080fd5b506104e4806100206000396000f3fe608060405234801561001057600080fd5b50600436106100415760003560e01c806311f250381461004657806345244a861461006d578063bed34bba14610080575b600080fd5b610059610054366004610241565b610093565b604051901515815260200160405180910390f35b61005961007b366004610354565b610109565b61005961008e3660046102f3565b610161565b6000805b82518110156100fd578281815181106100c057634e487b7160e01b600052603260045260246000fd5b60200260200101516001600160a01b0316846001600160a01b031614156100eb576001915050610103565b806100f581610471565b915050610097565b50600090505b92915050565b6000805b82518110156100fd5782818151811061013657634e487b7160e01b600052603260045260246000fd5b602002602001015184141561014f576001915050610103565b8061015981610471565b91505061010d565b60008160405160200161017491906103e3565b604051602081830303815290604052805190602001208360405160200161019b91906103e3565b6040516020818303038152906040528051906020012014905092915050565b80356001600160a01b03811681146101d157600080fd5b919050565b600082601f8301126101e6578081fd5b813567ffffffffffffffff81111561020057610200610498565b610213601f8201601f191660200161041c565b818152846020838601011115610227578283fd5b816020850160208301379081016020019190915292915050565b60008060408385031215610253578182fd5b61025c836101ba565b915060208084013567ffffffffffffffff811115610278578283fd5b8401601f81018613610288578283fd5b803561029b6102968261044d565b61041c565b80828252848201915084840189868560051b87010111156102ba578687fd5b8694505b838510156102e3576102cf816101ba565b8352600194909401939185019185016102be565b5080955050505050509250929050565b60008060408385031215610305578182fd5b823567ffffffffffffffff8082111561031c578384fd5b610328868387016101d6565b9350602085013591508082111561033d578283fd5b5061034a858286016101d6565b9150509250929050565b60008060408385031215610366578182fd5b8235915060208084013567ffffffffffffffff811115610384578283fd5b8401601f81018613610394578283fd5b80356103a26102968261044d565b80828252848201915084840189868560051b87010111156103c1578687fd5b8694505b838510156102e35780358352600194909401939185019185016103c5565b60008251815b8181101561040357602081860181015185830152016103e9565b818111156104115782828501525b509190910192915050565b604051601f8201601f1916810167ffffffffffffffff8111828210171561044557610445610498565b604052919050565b600067ffffffffffffffff82111561046757610467610498565b5060051b60200190565b600060001982141561049157634e487b7160e01b81526011600452602481fd5b5060010190565b634e487b7160e01b600052604160045260246000fdfea2646970667358221220fe747731607a28b4a71048d601ac697fd1ab38083b5aed555398c7f556d335fb64736f6c6343000804003360806040523480156200001157600080fd5b50604080518082018252600c81526b2634b13930b93caa37b5b2b760a11b6020808301918252835180850190945260038452622624a160e91b9084015281519192918391839162000065916005916200025a565b5080516200007b9060069060208401906200025a565b50506007805460ff191690555062000095600033620000f5565b620000c17f9f2df0fed2c77648de5860a4cc508cd0818c85b8b8a1ab4ceeef8d981c8956a633620000f5565b620000ed7f65d7a28e3265b37a6474929f336521b332c1681b933f6cb9f3376673440d862a33620000f5565b50506200033d565b6200010c82826200013860201b620009ef1760201c565b600082815260016020908152604090912062000133918390620009f962000148821b17901c565b505050565b62000144828262000168565b5050565b60006200015f836001600160a01b03841662000208565b90505b92915050565b6000828152602081815260408083206001600160a01b038516845290915290205460ff1662000144576000828152602081815260408083206001600160a01b03851684529091529020805460ff19166001179055620001c43390565b6001600160a01b0316816001600160a01b0316837f2f8788117e7eff1d82e926ec794901d17c78024a50270940304540a733656f0d60405160405180910390a45050565b6000818152600183016020526040812054620002515750815460018181018455600084815260208082209093018490558454848252828601909352604090209190915562000162565b50600062000162565b828054620002689062000300565b90600052602060002090601f0160209004810192826200028c5760008555620002d7565b82601f10620002a757805160ff1916838001178555620002d7565b82800160010185558215620002d7579182015b82811115620002d7578251825591602001919060010190620002ba565b50620002e5929150620002e9565b5090565b5b80821115620002e55760008155600101620002ea565b600181811c908216806200031557607f821691505b602082108114156200033757634e487b7160e01b600052602260045260246000fd5b50919050565b6117f7806200034d6000396000f3fe608060405234801561001057600080fd5b50600436106101c45760003560e01c806370a08231116100f9578063a457c2d711610097578063d539139311610071578063d5391393146103af578063d547741f146103d6578063dd62ed3e146103e9578063e63ab1e91461042257600080fd5b8063a457c2d714610376578063a9059cbb14610389578063ca15c8731461039c57600080fd5b80639010d07c116100d35780639010d07c1461032857806391d148541461035357806395d89b4114610366578063a217fddf1461036e57600080fd5b806370a08231146102e457806379cc67901461030d5780638456cb591461032057600080fd5b8063313ce567116101665780633f4ba83a116101405780633f4ba83a146102ab57806340c10f19146102b357806342966c68146102c65780635c975abb146102d957600080fd5b8063313ce5671461027657806336568abe14610285578063395093511461029857600080fd5b806318160ddd116101a257806318160ddd1461021957806323b872dd1461022b578063248a9ca31461023e5780632f2ff15d1461026157600080fd5b806301ffc9a7146101c957806306fdde03146101f1578063095ea7b314610206575b600080fd5b6101dc6101d73660046116c6565b610449565b60405190151581526020015b60405180910390f35b6101f9610474565b6040516101e891906116ee565b6101dc610214366004611642565b610506565b6004545b6040519081526020016101e8565b6101dc610239366004611607565b61051c565b61021d61024c36600461166b565b60009081526020819052604090206001015490565b61027461026f366004611683565b6105d2565b005b604051601281526020016101e8565b610274610293366004611683565b6105f9565b6101dc6102a6366004611642565b61061b565b610274610652565b6102746102c1366004611642565b6106f8565b6102746102d436600461166b565b61079b565b60075460ff166101dc565b61021d6102f23660046115bb565b6001600160a01b031660009081526002602052604090205490565b61027461031b366004611642565b6107a8565b61027461082b565b61033b6103363660046116a5565b6108cf565b6040516001600160a01b0390911681526020016101e8565b6101dc610361366004611683565b6108ee565b6101f9610917565b61021d600081565b6101dc610384366004611642565b610926565b6101dc610397366004611642565b6109c1565b61021d6103aa36600461166b565b6109ce565b61021d7f9f2df0fed2c77648de5860a4cc508cd0818c85b8b8a1ab4ceeef8d981c8956a681565b6102746103e4366004611683565b6109e5565b61021d6103f73660046115d5565b6001600160a01b03918216600090815260036020908152604080832093909416825291909152205490565b61021d7f65d7a28e3265b37a6474929f336521b332c1681b933f6cb9f3376673440d862a81565b60006001600160e01b03198216635a05180f60e01b148061046e575061046e82610a0e565b92915050565b60606005805461048390611770565b80601f01602080910402602001604051908101604052809291908181526020018280546104af90611770565b80156104fc5780601f106104d1576101008083540402835291602001916104fc565b820191906000526020600020905b8154815290600101906020018083116104df57829003601f168201915b5050505050905090565b6000610513338484610a43565b50600192915050565b6000610529848484610b68565b6001600160a01b0384166000908152600360209081526040808320338452909152902054828110156105b35760405162461bcd60e51b815260206004820152602860248201527f45524332303a207472616e7366657220616d6f756e74206578636565647320616044820152676c6c6f77616e636560c01b60648201526084015b60405180910390fd5b6105c785336105c28685611759565b610a43565b506001949350505050565b6105dc8282610d4b565b60008281526001602052604090206105f490826109f9565b505050565b6106038282610dcc565b60008281526001602052604090206105f49082610e46565b3360008181526003602090815260408083206001600160a01b038716845290915281205490916105139185906105c2908690611741565b61067c7f65d7a28e3265b37a6474929f336521b332c1681b933f6cb9f3376673440d862a336108ee565b6106ee5760405162461bcd60e51b815260206004820152603960248201527f45524332305072657365744d696e7465725061757365723a206d75737420686160448201527f76652070617573657220726f6c6520746f20756e70617573650000000000000060648201526084016105aa565b6106f6610e5b565b565b6107227f9f2df0fed2c77648de5860a4cc508cd0818c85b8b8a1ab4ceeef8d981c8956a6336108ee565b61078d5760405162461bcd60e51b815260206004820152603660248201527f45524332305072657365744d696e7465725061757365723a206d7573742068616044820152751d99481b5a5b9d195c881c9bdb19481d1bc81b5a5b9d60521b60648201526084016105aa565b6107978282610eee565b5050565b6107a53382610fd9565b50565b60006107b483336103f7565b9050818110156108125760405162461bcd60e51b8152602060048201526024808201527f45524332303a206275726e20616d6f756e74206578636565647320616c6c6f77604482015263616e636560e01b60648201526084016105aa565b61082183336105c28585611759565b6105f48383610fd9565b6108557f65d7a28e3265b37a6474929f336521b332c1681b933f6cb9f3376673440d862a336108ee565b6108c75760405162461bcd60e51b815260206004820152603760248201527f45524332305072657365744d696e7465725061757365723a206d75737420686160448201527f76652070617573657220726f6c6520746f20706175736500000000000000000060648201526084016105aa565b6106f6611134565b60008281526001602052604081206108e790836111af565b9392505050565b6000918252602082815260408084206001600160a01b0393909316845291905290205460ff1690565b60606006805461048390611770565b3360009081526003602090815260408083206001600160a01b0386168452909152812054828110156109a85760405162461bcd60e51b815260206004820152602560248201527f45524332303a2064656372656173656420616c6c6f77616e63652062656c6f77604482015264207a65726f60d81b60648201526084016105aa565b6109b733856105c28685611759565b5060019392505050565b6000610513338484610b68565b600081815260016020526040812061046e906111bb565b61060382826111c5565b6107978282611245565b60006108e7836001600160a01b0384166112c9565b60006001600160e01b03198216637965db0b60e01b148061046e57506301ffc9a760e01b6001600160e01b031983161461046e565b6001600160a01b038316610aa55760405162461bcd60e51b8152602060048201526024808201527f45524332303a20617070726f76652066726f6d20746865207a65726f206164646044820152637265737360e01b60648201526084016105aa565b6001600160a01b038216610b065760405162461bcd60e51b815260206004820152602260248201527f45524332303a20617070726f766520746f20746865207a65726f206164647265604482015261737360f01b60648201526084016105aa565b6001600160a01b0383811660008181526003602090815260408083209487168084529482529182902085905590518481527f8c5be1e5ebec7d5bd14f71427d1e84f3dd0314c0f7b2291e5b200ac8c7c3b92591015b60405180910390a3505050565b6001600160a01b038316610bcc5760405162461bcd60e51b815260206004820152602560248201527f45524332303a207472616e736665722066726f6d20746865207a65726f206164604482015264647265737360d81b60648201526084016105aa565b6001600160a01b038216610c2e5760405162461bcd60e51b815260206004820152602360248201527f45524332303a207472616e7366657220746f20746865207a65726f206164647260448201526265737360e81b60648201526084016105aa565b610c39838383611318565b6001600160a01b03831660009081526002602052604090205481811015610cb15760405162461bcd60e51b815260206004820152602660248201527f45524332303a207472616e7366657220616d6f756e7420657863656564732062604482015265616c616e636560d01b60648201526084016105aa565b610cbb8282611759565b6001600160a01b038086166000908152600260205260408082209390935590851681529081208054849290610cf1908490611741565b92505081905550826001600160a01b0316846001600160a01b03167fddf252ad1be2c89b69c2b068fc378daa952ba7f163c4a11628f55a4df523b3ef84604051610d3d91815260200190565b60405180910390a350505050565b600082815260208190526040902060010154610d68905b336108ee565b6109ef5760405162461bcd60e51b815260206004820152602f60248201527f416363657373436f6e74726f6c3a2073656e646572206d75737420626520616e60448201526e0818591b5a5b881d1bc819dc985b9d608a1b60648201526084016105aa565b6001600160a01b0381163314610e3c5760405162461bcd60e51b815260206004820152602f60248201527f416363657373436f6e74726f6c3a2063616e206f6e6c792072656e6f756e636560448201526e103937b632b9903337b91039b2b63360891b60648201526084016105aa565b6107978282611323565b60006108e7836001600160a01b038416611388565b60075460ff16610ea45760405162461bcd60e51b815260206004820152601460248201527314185d5cd8589b194e881b9bdd081c185d5cd95960621b60448201526064016105aa565b6007805460ff191690557f5db9ee0a495bf2e6ff9c91a7834c1ba4fdd244a5e8aa4e537bd38aeae4b073aa335b6040516001600160a01b03909116815260200160405180910390a1565b6001600160a01b038216610f445760405162461bcd60e51b815260206004820152601f60248201527f45524332303a206d696e7420746f20746865207a65726f20616464726573730060448201526064016105aa565b610f5060008383611318565b8060046000828254610f629190611741565b90915550506001600160a01b03821660009081526002602052604081208054839290610f8f908490611741565b90915550506040518181526001600160a01b038316906000907fddf252ad1be2c89b69c2b068fc378daa952ba7f163c4a11628f55a4df523b3ef9060200160405180910390a35050565b6001600160a01b0382166110395760405162461bcd60e51b815260206004820152602160248201527f45524332303a206275726e2066726f6d20746865207a65726f206164647265736044820152607360f81b60648201526084016105aa565b61104582600083611318565b6001600160a01b038216600090815260026020526040902054818110156110b95760405162461bcd60e51b815260206004820152602260248201527f45524332303a206275726e20616d6f756e7420657863656564732062616c616e604482015261636560f01b60648201526084016105aa565b6110c38282611759565b6001600160a01b038416600090815260026020526040812091909155600480548492906110f1908490611759565b90915550506040518281526000906001600160a01b038516907fddf252ad1be2c89b69c2b068fc378daa952ba7f163c4a11628f55a4df523b3ef90602001610b5b565b60075460ff161561117a5760405162461bcd60e51b815260206004820152601060248201526f14185d5cd8589b194e881c185d5cd95960821b60448201526064016105aa565b6007805460ff191660011790557f62e78cea01bee320cd4e420270b5ea74000d11b0c9f74754ebdbfc544b05a258610ed13390565b60006108e783836114a5565b600061046e825490565b6000828152602081905260409020600101546111e090610d62565b610e3c5760405162461bcd60e51b815260206004820152603060248201527f416363657373436f6e74726f6c3a2073656e646572206d75737420626520616e60448201526f2061646d696e20746f207265766f6b6560801b60648201526084016105aa565b61124f82826108ee565b610797576000828152602081815260408083206001600160a01b03851684529091529020805460ff191660011790556112853390565b6001600160a01b0316816001600160a01b0316837f2f8788117e7eff1d82e926ec794901d17c78024a50270940304540a733656f0d60405160405180910390a45050565b60008181526001830160205260408120546113105750815460018181018455600084815260208082209093018490558454848252828601909352604090209190915561046e565b50600061046e565b6105f4838383611539565b61132d82826108ee565b15610797576000828152602081815260408083206001600160a01b0385168085529252808320805460ff1916905551339285917ff6391f5c32d9c69d2a47ea670b442974b53935d1edc7fd64eb21e047a839171b9190a45050565b6000818152600183016020526040812054801561149b5760006113ac600183611759565b85549091506000906113c090600190611759565b905060008660000182815481106113e757634e487b7160e01b600052603260045260246000fd5b906000526020600020015490508087600001848154811061141857634e487b7160e01b600052603260045260246000fd5b60009182526020909120015561142f836001611741565b6000828152600189016020526040902055865487908061145f57634e487b7160e01b600052603160045260246000fd5b6001900381819060005260206000200160009055905586600101600087815260200190815260200160002060009055600194505050505061046e565b600091505061046e565b815460009082106115035760405162461bcd60e51b815260206004820152602260248201527f456e756d657261626c655365743a20696e646578206f7574206f6620626f756e604482015261647360f01b60648201526084016105aa565b82600001828154811061152657634e487b7160e01b600052603260045260246000fd5b9060005260206000200154905092915050565b60075460ff16156105f45760405162461bcd60e51b815260206004820152602a60248201527f45524332305061757361626c653a20746f6b656e207472616e736665722077686044820152691a5b19481c185d5cd95960b21b60648201526084016105aa565b80356001600160a01b03811681146115b657600080fd5b919050565b6000602082840312156115cc578081fd5b6108e78261159f565b600080604083850312156115e7578081fd5b6115f08361159f565b91506115fe6020840161159f565b90509250929050565b60008060006060848603121561161b578081fd5b6116248461159f565b92506116326020850161159f565b9150604084013590509250925092565b60008060408385031215611654578182fd5b61165d8361159f565b946020939093013593505050565b60006020828403121561167c578081fd5b5035919050565b60008060408385031215611695578182fd5b823591506115fe6020840161159f565b600080604083850312156116b7578182fd5b50508035926020909101359150565b6000602082840312156116d7578081fd5b81356001600160e01b0319811681146108e7578182fd5b6000602080835283518082850152825b8181101561171a578581018301518582016040015282016116fe565b8181111561172b5783604083870101525b50601f01601f1916929092016040019392505050565b60008219821115611754576117546117ab565b500190565b60008282101561176b5761176b6117ab565b500390565b600181811c9082168061178457607f821691505b602082108114156117a557634e487b7160e01b600052602260045260246000fd5b50919050565b634e487b7160e01b600052601160045260246000fdfea26469706673582212205706928f3adacd4e7fedb819075715bbf01dc899552a947141897fecf0b2804564736f6c63430008040033",
  "linkReferences": {},
  "deployedLinkReferences": {}
}