{
  "_format": "hh-sol-artifact-1",
  "contractName": "LibraryToken",
  "sourceName": "contracts/LibraryToken.sol",
  "abi": [
    {
      "inputs": [],
      "stateMutability": "nonpayable",
      "type": "constructor"
    },
    {
      "anonymous": false,
      "inputs": [
        {
          "indexed": true,
          "internalType": "address",
          "name": "owner",
          "type": "address"
        },
        {
          "indexed": true,
          "internalType": "address",
          "name": "spender",
          "type": "address"
        },
        {
          "indexed": false,
          "internalType": "uint256",
          "name": "value",
          "type": "uint256"
        }
      ],
      "name": "Approval",
      "type": "event"
    },
    {
      "anonymous": false,
      "inputs": [
        {
          "indexed": false,
          "internalType": "address",
          "name": "account",
          "type": "address"
        }
      ],
      "name": "Paused",
      "type": "event"
    },
    {
      "anonymous": false,
      "inputs": [
        {
          "indexed": true,
          "internalType": "bytes32",
          "name": "role",
          "type": "bytes32"
        },
        {
          "indexed": true,
          "internalType": "bytes32",
          "name": "previousAdminRole",
          "type": "bytes32"
        },
        {
          "indexed": true,
          "internalType": "bytes32",
          "name": "newAdminRole",
          "type": "bytes32"
        }
      ],
      "name": "RoleAdminChanged",
      "type": "event"
    },
    {
      "anonymous": false,
      "inputs": [
        {
          "indexed": true,
          "internalType": "bytes32",
          "name": "role",
          "type": "bytes32"
        },
        {
          "indexed": true,
          "internalType": "address",
          "name": "account",
          "type": "address"
        },
        {
          "indexed": true,
          "internalType": "address",
          "name": "sender",
          "type": "address"
        }
      ],
      "name": "RoleGranted",
      "type": "event"
    },
    {
      "anonymous": false,
      "inputs": [
        {
          "indexed": true,
          "internalType": "bytes32",
          "name": "role",
          "type": "bytes32"
        },
        {
          "indexed": true,
          "internalType": "address",
          "name": "account",
          "type": "address"
        },
        {
          "indexed": true,
          "internalType": "address",
          "name": "sender",
          "type": "address"
        }
      ],
      "name": "RoleRevoked",
      "type": "event"
    },
    {
      "anonymous": false,
      "inputs": [
        {
          "indexed": true,
          "internalType": "address",
          "name": "from",
          "type": "address"
        },
        {
          "indexed": true,
          "internalType": "address",
          "name": "to",
          "type": "address"
        },
        {
          "indexed": false,
          "internalType": "uint256",
          "name": "value",
          "type": "uint256"
        }
      ],
      "name": "Transfer",
      "type": "event"
    },
    {
      "anonymous": false,
      "inputs": [
        {
          "indexed": false,
          "internalType": "address",
          "name": "account",
          "type": "address"
        }
      ],
      "name": "Unpaused",
      "type": "event"
    },
    {
      "inputs": [],
      "name": "DEFAULT_ADMIN_ROLE",
      "outputs": [
        {
          "internalType": "bytes32",
          "name": "",
          "type": "bytes32"
        }
      ],
      "stateMutability": "view",
      "type": "function"
    },
    {
      "inputs": [],
      "name": "MINTER_ROLE",
      "outputs": [
        {
          "internalType": "bytes32",
          "name": "",
          "type": "bytes32"
        }
      ],
      "stateMutability": "view",
      "type": "function"
    },
    {
      "inputs": [],
      "name": "PAUSER_ROLE",
      "outputs": [
        {
          "internalType": "bytes32",
          "name": "",
          "type": "bytes32"
        }
      ],
      "stateMutability": "view",
      "type": "function"
    },
    {
      "inputs": [
        {
          "internalType": "address",
          "name": "owner",
          "type": "address"
        },
        {
          "internalType": "address",
          "name": "spender",
          "type": "address"
        }
      ],
      "name": "allowance",
      "outputs": [
        {
          "internalType": "uint256",
          "name": "",
          "type": "uint256"
        }
      ],
      "stateMutability": "view",
      "type": "function"
    },
    {
      "inputs": [
        {
          "internalType": "address",
          "name": "spender",
          "type": "address"
        },
        {
          "internalType": "uint256",
          "name": "amount",
          "type": "uint256"
        }
      ],
      "name": "approve",
      "outputs": [
        {
          "internalType": "bool",
          "name": "",
          "type": "bool"
        }
      ],
      "stateMutability": "nonpayable",
      "type": "function"
    },
    {
      "inputs": [
        {
          "internalType": "address",
          "name": "account",
          "type": "address"
        }
      ],
      "name": "balanceOf",
      "outputs": [
        {
          "internalType": "uint256",
          "name": "",
          "type": "uint256"
        }
      ],
      "stateMutability": "view",
      "type": "function"
    },
    {
      "inputs": [
        {
          "internalType": "uint256",
          "name": "amount",
          "type": "uint256"
        }
      ],
      "name": "burn",
      "outputs": [],
      "stateMutability": "nonpayable",
      "type": "function"
    },
    {
      "inputs": [
        {
          "internalType": "address",
          "name": "account",
          "type": "address"
        },
        {
          "internalType": "uint256",
          "name": "amount",
          "type": "uint256"
        }
      ],
      "name": "burnFrom",
      "outputs": [],
      "stateMutability": "nonpayable",
      "type": "function"
    },
    {
      "inputs": [],
      "name": "decimals",
      "outputs": [
        {
          "internalType": "uint8",
          "name": "",
          "type": "uint8"
        }
      ],
      "stateMutability": "view",
      "type": "function"
    },
    {
      "inputs": [
        {
          "internalType": "address",
          "name": "spender",
          "type": "address"
        },
        {
          "internalType": "uint256",
          "name": "subtractedValue",
          "type": "uint256"
        }
      ],
      "name": "decreaseAllowance",
      "outputs": [
        {
          "internalType": "bool",
          "name": "",
          "type": "bool"
        }
      ],
      "stateMutability": "nonpayable",
      "type": "function"
    },
    {
      "inputs": [
        {
          "internalType": "bytes32",
          "name": "role",
          "type": "bytes32"
        }
      ],
      "name": "getRoleAdmin",
      "outputs": [
        {
          "internalType": "bytes32",
          "name": "",
          "type": "bytes32"
        }
      ],
      "stateMutability": "view",
      "type": "function"
    },
    {
      "inputs": [
        {
          "internalType": "bytes32",
          "name": "role",
          "type": "bytes32"
        },
        {
          "internalType": "uint256",
          "name": "index",
          "type": "uint256"
        }
      ],
      "name": "getRoleMember",
      "outputs": [
        {
          "internalType": "address",
          "name": "",
          "type": "address"
        }
      ],
      "stateMutability": "view",
      "type": "function"
    },
    {
      "inputs": [
        {
          "internalType": "bytes32",
          "name": "role",
          "type": "bytes32"
        }
      ],
      "name": "getRoleMemberCount",
      "outputs": [
        {
          "internalType": "uint256",
          "name": "",
          "type": "uint256"
        }
      ],
      "stateMutability": "view",
      "type": "function"
    },
    {
      "inputs": [
        {
          "internalType": "bytes32",
          "name": "role",
          "type": "bytes32"
        },
        {
          "internalType": "address",
          "name": "account",
          "type": "address"
        }
      ],
      "name": "grantRole",
      "outputs": [],
      "stateMutability": "nonpayable",
      "type": "function"
    },
    {
      "inputs": [
        {
          "internalType": "bytes32",
          "name": "role",
          "type": "bytes32"
        },
        {
          "internalType": "address",
          "name": "account",
          "type": "address"
        }
      ],
      "name": "hasRole",
      "outputs": [
        {
          "internalType": "bool",
          "name": "",
          "type": "bool"
        }
      ],
      "stateMutability": "view",
      "type": "function"
    },
    {
      "inputs": [
        {
          "internalType": "address",
          "name": "spender",
          "type": "address"
        },
        {
          "internalType": "uint256",
          "name": "addedValue",
          "type": "uint256"
        }
      ],
      "name": "increaseAllowance",
      "outputs": [
        {
          "internalType": "bool",
          "name": "",
          "type": "bool"
        }
      ],
      "stateMutability": "nonpayable",
      "type": "function"
    },
    {
      "inputs": [
        {
          "internalType": "address",
          "name": "to",
          "type": "address"
        },
        {
          "internalType": "uint256",
          "name": "amount",
          "type": "uint256"
        }
      ],
      "name": "mint",
      "outputs": [],
      "stateMutability": "nonpayable",
      "type": "function"
    },
    {
      "inputs": [],
      "name": "name",
      "outputs": [
        {
          "internalType": "string",
          "name": "",
          "type": "string"
        }
      ],
      "stateMutability": "view",
      "type": "function"
    },
    {
      "inputs": [],
      "name": "pause",
      "outputs": [],
      "stateMutability": "nonpayable",
      "type": "function"
    },
    {
      "inputs": [],
      "name": "paused",
      "outputs": [
        {
          "internalType": "bool",
          "name": "",
          "type": "bool"
        }
      ],
      "stateMutability": "view",
      "type": "function"
    },
    {
      "inputs": [
        {
          "internalType": "bytes32",
          "name": "role",
          "type": "bytes32"
        },
        {
          "internalType": "address",
          "name": "account",
          "type": "address"
        }
      ],
      "name": "renounceRole",
      "outputs": [],
      "stateMutability": "nonpayable",
      "type": "function"
    },
    {
      "inputs": [
        {
          "internalType": "bytes32",
          "name": "role",
          "type": "bytes32"
        },
        {
          "internalType": "address",
          "name": "account",
          "type": "address"
        }
      ],
      "name": "revokeRole",
      "outputs": [],
      "stateMutability": "nonpayable",
      "type": "function"
    },
    {
      "inputs": [
        {
          "internalType": "bytes4",
          "name": "interfaceId",
          "type": "bytes4"
        }
      ],
      "name": "supportsInterface",
      "outputs": [
        {
          "internalType": "bool",
          "name": "",
          "type": "bool"
        }
      ],
      "stateMutability": "view",
      "type": "function"
    },
    {
      "inputs": [],
      "name": "symbol",
      "outputs": [
        {
          "internalType": "string",
          "name": "",
          "type": "string"
        }
      ],
      "stateMutability": "view",
      "type": "function"
    },
    {
      "inputs": [],
      "name": "totalSupply",
      "outputs": [
        {
          "internalType": "uint256",
          "name": "",
          "type": "uint256"
        }
      ],
      "stateMutability": "view",
      "type": "function"
    },
    {
      "inputs": [
        {
          "internalType": "address",
          "name": "recipient",
          "type": "address"
        },
        {
          "internalType": "uint256",
          "name": "amount",
          "type": "uint256"
        }
      ],
      "name": "transfer",
      "outputs": [
        {
          "internalType": "bool",
          "name": "",
          "type": "bool"
        }
      ],
      "stateMutability": "nonpayable",
      "type": "function"
    },
    {
      "inputs": [
        {
          "internalType": "address",
          "name": "sender",
          "type": "address"
        },
        {
          "internalType": "address",
          "name": "recipient",
          "type": "address"
        },
        {
          "internalType": "uint256",
          "name": "amount",
          "type": "uint256"
        }
      ],
      "name": "transferFrom",
      "outputs": [
        {
          "internalType": "bool",
          "name": "",
          "type": "bool"
        }
      ],
      "stateMutability": "nonpayable",
      "type": "function"
    },
    {
      "inputs": [],
      "name": "unpause",
      "outputs": [],
      "stateMutability": "nonpayable",
      "type": "function"
    }
  ],
  "bytecode": "0x60806040523480156200001157600080fd5b50604080518082018252600c81526b2634b13930b93caa37b5b2b760a11b6020808301918252835180850190945260038452622624a160e91b9084015281519192918391839162000065916005916200025a565b5080516200007b9060069060208401906200025a565b50506007805460ff191690555062000095600033620000f5565b620000c17f9f2df0fed2c77648de5860a4cc508cd0818c85b8b8a1ab4ceeef8d981c8956a633620000f5565b620000ed7f65d7a28e3265b37a6474929f336521b332c1681b933f6cb9f3376673440d862a33620000f5565b50506200033d565b6200010c82826200013860201b620009ef1760201c565b600082815260016020908152604090912062000133918390620009f962000148821b17901c565b505050565b62000144828262000168565b5050565b60006200015f836001600160a01b03841662000208565b90505b92915050565b6000828152602081815260408083206001600160a01b038516845290915290205460ff1662000144576000828152602081815260408083206001600160a01b03851684529091529020805460ff19166001179055620001c43390565b6001600160a01b0316816001600160a01b0316837f2f8788117e7eff1d82e926ec794901d17c78024a50270940304540a733656f0d60405160405180910390a45050565b6000818152600183016020526040812054620002515750815460018181018455600084815260208082209093018490558454848252828601909352604090209190915562000162565b50600062000162565b828054620002689062000300565b90600052602060002090601f0160209004810192826200028c5760008555620002d7565b82601f10620002a757805160ff1916838001178555620002d7565b82800160010185558215620002d7579182015b82811115620002d7578251825591602001919060010190620002ba565b50620002e5929150620002e9565b5090565b5b80821115620002e55760008155600101620002ea565b600181811c908216806200031557607f821691505b602082108114156200033757634e487b7160e01b600052602260045260246000fd5b50919050565b6117f7806200034d6000396000f3fe608060405234801561001057600080fd5b50600436106101c45760003560e01c806370a08231116100f9578063a457c2d711610097578063d539139311610071578063d5391393146103af578063d547741f146103d6578063dd62ed3e146103e9578063e63ab1e91461042257600080fd5b8063a457c2d714610376578063a9059cbb14610389578063ca15c8731461039c57600080fd5b80639010d07c116100d35780639010d07c1461032857806391d148541461035357806395d89b4114610366578063a217fddf1461036e57600080fd5b806370a08231146102e457806379cc67901461030d5780638456cb591461032057600080fd5b8063313ce567116101665780633f4ba83a116101405780633f4ba83a146102ab57806340c10f19146102b357806342966c68146102c65780635c975abb146102d957600080fd5b8063313ce5671461027657806336568abe14610285578063395093511461029857600080fd5b806318160ddd116101a257806318160ddd1461021957806323b872dd1461022b578063248a9ca31461023e5780632f2ff15d1461026157600080fd5b806301ffc9a7146101c957806306fdde03146101f1578063095ea7b314610206575b600080fd5b6101dc6101d73660046116c6565b610449565b60405190151581526020015b60405180910390f35b6101f9610474565b6040516101e891906116ee565b6101dc610214366004611642565b610506565b6004545b6040519081526020016101e8565b6101dc610239366004611607565b61051c565b61021d61024c36600461166b565b60009081526020819052604090206001015490565b61027461026f366004611683565b6105d2565b005b604051601281526020016101e8565b610274610293366004611683565b6105f9565b6101dc6102a6366004611642565b61061b565b610274610652565b6102746102c1366004611642565b6106f8565b6102746102d436600461166b565b61079b565b60075460ff166101dc565b61021d6102f23660046115bb565b6001600160a01b031660009081526002602052604090205490565b61027461031b366004611642565b6107a8565b61027461082b565b61033b6103363660046116a5565b6108cf565b6040516001600160a01b0390911681526020016101e8565b6101dc610361366004611683565b6108ee565b6101f9610917565b61021d600081565b6101dc610384366004611642565b610926565b6101dc610397366004611642565b6109c1565b61021d6103aa36600461166b565b6109ce565b61021d7f9f2df0fed2c77648de5860a4cc508cd0818c85b8b8a1ab4ceeef8d981c8956a681565b6102746103e4366004611683565b6109e5565b61021d6103f73660046115d5565b6001600160a01b03918216600090815260036020908152604080832093909416825291909152205490565b61021d7f65d7a28e3265b37a6474929f336521b332c1681b933f6cb9f3376673440d862a81565b60006001600160e01b03198216635a05180f60e01b148061046e575061046e82610a0e565b92915050565b60606005805461048390611770565b80601f01602080910402602001604051908101604052809291908181526020018280546104af90611770565b80156104fc5780601f106104d1576101008083540402835291602001916104fc565b820191906000526020600020905b8154815290600101906020018083116104df57829003601f168201915b5050505050905090565b6000610513338484610a43565b50600192915050565b6000610529848484610b68565b6001600160a01b0384166000908152600360209081526040808320338452909152902054828110156105b35760405162461bcd60e51b815260206004820152602860248201527f45524332303a207472616e7366657220616d6f756e74206578636565647320616044820152676c6c6f77616e636560c01b60648201526084015b60405180910390fd5b6105c785336105c28685611759565b610a43565b506001949350505050565b6105dc8282610d4b565b60008281526001602052604090206105f490826109f9565b505050565b6106038282610dcc565b60008281526001602052604090206105f49082610e46565b3360008181526003602090815260408083206001600160a01b038716845290915281205490916105139185906105c2908690611741565b61067c7f65d7a28e3265b37a6474929f336521b332c1681b933f6cb9f3376673440d862a336108ee565b6106ee5760405162461bcd60e51b815260206004820152603960248201527f45524332305072657365744d696e7465725061757365723a206d75737420686160448201527f76652070617573657220726f6c6520746f20756e70617573650000000000000060648201526084016105aa565b6106f6610e5b565b565b6107227f9f2df0fed2c77648de5860a4cc508cd0818c85b8b8a1ab4ceeef8d981c8956a6336108ee565b61078d5760405162461bcd60e51b815260206004820152603660248201527f45524332305072657365744d696e7465725061757365723a206d7573742068616044820152751d99481b5a5b9d195c881c9bdb19481d1bc81b5a5b9d60521b60648201526084016105aa565b6107978282610eee565b5050565b6107a53382610fd9565b50565b60006107b483336103f7565b9050818110156108125760405162461bcd60e51b8152602060048201526024808201527f45524332303a206275726e20616d6f756e74206578636565647320616c6c6f77604482015263616e636560e01b60648201526084016105aa565b61082183336105c28585611759565b6105f48383610fd9565b6108557f65d7a28e3265b37a6474929f336521b332c1681b933f6cb9f3376673440d862a336108ee565b6108c75760405162461bcd60e51b815260206004820152603760248201527f45524332305072657365744d696e7465725061757365723a206d75737420686160448201527f76652070617573657220726f6c6520746f20706175736500000000000000000060648201526084016105aa565b6106f6611134565b60008281526001602052604081206108e790836111af565b9392505050565b6000918252602082815260408084206001600160a01b0393909316845291905290205460ff1690565b60606006805461048390611770565b3360009081526003602090815260408083206001600160a01b0386168452909152812054828110156109a85760405162461bcd60e51b815260206004820152602560248201527f45524332303a2064656372656173656420616c6c6f77616e63652062656c6f77604482015264207a65726f60d81b60648201526084016105aa565b6109b733856105c28685611759565b5060019392505050565b6000610513338484610b68565b600081815260016020526040812061046e906111bb565b61060382826111c5565b6107978282611245565b60006108e7836001600160a01b0384166112c9565b60006001600160e01b03198216637965db0b60e01b148061046e57506301ffc9a760e01b6001600160e01b031983161461046e565b6001600160a01b038316610aa55760405162461bcd60e51b8152602060048201526024808201527f45524332303a20617070726f76652066726f6d20746865207a65726f206164646044820152637265737360e01b60648201526084016105aa565b6001600160a01b038216610b065760405162461bcd60e51b815260206004820152602260248201527f45524332303a20617070726f766520746f20746865207a65726f206164647265604482015261737360f01b60648201526084016105aa565b6001600160a01b0383811660008181526003602090815260408083209487168084529482529182902085905590518481527f8c5be1e5ebec7d5bd14f71427d1e84f3dd0314c0f7b2291e5b200ac8c7c3b92591015b60405180910390a3505050565b6001600160a01b038316610bcc5760405162461bcd60e51b815260206004820152602560248201527f45524332303a207472616e736665722066726f6d20746865207a65726f206164604482015264647265737360d81b60648201526084016105aa565b6001600160a01b038216610c2e5760405162461bcd60e51b815260206004820152602360248201527f45524332303a207472616e7366657220746f20746865207a65726f206164647260448201526265737360e81b60648201526084016105aa565b610c39838383611318565b6001600160a01b03831660009081526002602052604090205481811015610cb15760405162461bcd60e51b815260206004820152602660248201527f45524332303a207472616e7366657220616d6f756e7420657863656564732062604482015265616c616e636560d01b60648201526084016105aa565b610cbb8282611759565b6001600160a01b038086166000908152600260205260408082209390935590851681529081208054849290610cf1908490611741565b92505081905550826001600160a01b0316846001600160a01b03167fddf252ad1be2c89b69c2b068fc378daa952ba7f163c4a11628f55a4df523b3ef84604051610d3d91815260200190565b60405180910390a350505050565b600082815260208190526040902060010154610d68905b336108ee565b6109ef5760405162461bcd60e51b815260206004820152602f60248201527f416363657373436f6e74726f6c3a2073656e646572206d75737420626520616e60448201526e0818591b5a5b881d1bc819dc985b9d608a1b60648201526084016105aa565b6001600160a01b0381163314610e3c5760405162461bcd60e51b815260206004820152602f60248201527f416363657373436f6e74726f6c3a2063616e206f6e6c792072656e6f756e636560448201526e103937b632b9903337b91039b2b63360891b60648201526084016105aa565b6107978282611323565b60006108e7836001600160a01b038416611388565b60075460ff16610ea45760405162461bcd60e51b815260206004820152601460248201527314185d5cd8589b194e881b9bdd081c185d5cd95960621b60448201526064016105aa565b6007805460ff191690557f5db9ee0a495bf2e6ff9c91a7834c1ba4fdd244a5e8aa4e537bd38aeae4b073aa335b6040516001600160a01b03909116815260200160405180910390a1565b6001600160a01b038216610f445760405162461bcd60e51b815260206004820152601f60248201527f45524332303a206d696e7420746f20746865207a65726f20616464726573730060448201526064016105aa565b610f5060008383611318565b8060046000828254610f629190611741565b90915550506001600160a01b03821660009081526002602052604081208054839290610f8f908490611741565b90915550506040518181526001600160a01b038316906000907fddf252ad1be2c89b69c2b068fc378daa952ba7f163c4a11628f55a4df523b3ef9060200160405180910390a35050565b6001600160a01b0382166110395760405162461bcd60e51b815260206004820152602160248201527f45524332303a206275726e2066726f6d20746865207a65726f206164647265736044820152607360f81b60648201526084016105aa565b61104582600083611318565b6001600160a01b038216600090815260026020526040902054818110156110b95760405162461bcd60e51b815260206004820152602260248201527f45524332303a206275726e20616d6f756e7420657863656564732062616c616e604482015261636560f01b60648201526084016105aa565b6110c38282611759565b6001600160a01b038416600090815260026020526040812091909155600480548492906110f1908490611759565b90915550506040518281526000906001600160a01b038516907fddf252ad1be2c89b69c2b068fc378daa952ba7f163c4a11628f55a4df523b3ef90602001610b5b565b60075460ff161561117a5760405162461bcd60e51b815260206004820152601060248201526f14185d5cd8589b194e881c185d5cd95960821b60448201526064016105aa565b6007805460ff191660011790557f62e78cea01bee320cd4e420270b5ea74000d11b0c9f74754ebdbfc544b05a258610ed13390565b60006108e783836114a5565b600061046e825490565b6000828152602081905260409020600101546111e090610d62565b610e3c5760405162461bcd60e51b815260206004820152603060248201527f416363657373436f6e74726f6c3a2073656e646572206d75737420626520616e60448201526f2061646d696e20746f207265766f6b6560801b60648201526084016105aa565b61124f82826108ee565b610797576000828152602081815260408083206001600160a01b03851684529091529020805460ff191660011790556112853390565b6001600160a01b0316816001600160a01b0316837f2f8788117e7eff1d82e926ec794901d17c78024a50270940304540a733656f0d60405160405180910390a45050565b60008181526001830160205260408120546113105750815460018181018455600084815260208082209093018490558454848252828601909352604090209190915561046e565b50600061046e565b6105f4838383611539565b61132d82826108ee565b15610797576000828152602081815260408083206001600160a01b0385168085529252808320805460ff1916905551339285917ff6391f5c32d9c69d2a47ea670b442974b53935d1edc7fd64eb21e047a839171b9190a45050565b6000818152600183016020526040812054801561149b5760006113ac600183611759565b85549091506000906113c090600190611759565b905060008660000182815481106113e757634e487b7160e01b600052603260045260246000fd5b906000526020600020015490508087600001848154811061141857634e487b7160e01b600052603260045260246000fd5b60009182526020909120015561142f836001611741565b6000828152600189016020526040902055865487908061145f57634e487b7160e01b600052603160045260246000fd5b6001900381819060005260206000200160009055905586600101600087815260200190815260200160002060009055600194505050505061046e565b600091505061046e565b815460009082106115035760405162461bcd60e51b815260206004820152602260248201527f456e756d657261626c655365743a20696e646578206f7574206f6620626f756e604482015261647360f01b60648201526084016105aa565b82600001828154811061152657634e487b7160e01b600052603260045260246000fd5b9060005260206000200154905092915050565b60075460ff16156105f45760405162461bcd60e51b815260206004820152602a60248201527f45524332305061757361626c653a20746f6b656e207472616e736665722077686044820152691a5b19481c185d5cd95960b21b60648201526084016105aa565b80356001600160a01b03811681146115b657600080fd5b919050565b6000602082840312156115cc578081fd5b6108e78261159f565b600080604083850312156115e7578081fd5b6115f08361159f565b91506115fe6020840161159f565b90509250929050565b60008060006060848603121561161b578081fd5b6116248461159f565b92506116326020850161159f565b9150604084013590509250925092565b60008060408385031215611654578182fd5b61165d8361159f565b946020939093013593505050565b60006020828403121561167c578081fd5b5035919050565b60008060408385031215611695578182fd5b823591506115fe6020840161159f565b600080604083850312156116b7578182fd5b50508035926020909101359150565b6000602082840312156116d7578081fd5b81356001600160e01b0319811681146108e7578182fd5b6000602080835283518082850152825b8181101561171a578581018301518582016040015282016116fe565b8181111561172b5783604083870101525b50601f01601f1916929092016040019392505050565b60008219821115611754576117546117ab565b500190565b60008282101561176b5761176b6117ab565b500390565b600181811c9082168061178457607f821691505b602082108114156117a557634e487b7160e01b600052602260045260246000fd5b50919050565b634e487b7160e01b600052601160045260246000fdfea26469706673582212205706928f3adacd4e7fedb819075715bbf01dc899552a947141897fecf0b2804564736f6c63430008040033",
  "linkReferences": {},
  "deployedLinkReferences": {}
}